:100000000C9416010C943E010C943E010C943E019C
:100010000C943E010C943E010C943E010C943E0164
:100020000C943E010C943E010C94AF060C942107F5
:100030000C943E010C943E010C943E010C943E0144
:100040000C943E010C943E010C943E010C943E0134
:100050000C943E010C943E010C943E010C945E09FC
:100060000C943E010C943E010C943E010C943E0114
:100070000C943E010C943E010C943E010C943E0104
:100080000C943E010C943E010C943E010C943E01F4
:100090000C943E010C943E010C943E010C943E01E4
:1000A0000C943E010C943E010C943E010F0312038C
:1000B000010305030B0333033303330316031A034E
:1000C0001E032403280333032E0300000000240032
:1000D00027002A002D003000000000002300260029
:1000E00029002C002F00080B000202020100090465
:1000F0000000010202000005240010010524010196
:1001000001042402060524060001070581031000EE
:100110004009040100020A00000007050202400035
:10012000000705830240000004030904556E6B6E4E
:100130006F776E005875616E2773204D6564696135
:1001400020436F6E74726F6C6C6572001201000256
:10015000000000400000250500010102030112011A
:100160000002EF0201400000250500010102030129
:10017000050C0901A101850409E909EA09E209CD93
:1001800009B509B615002501750195108106C00550
:10019000010906A1018502050719E029E7150025D7
:1001A0000175019508810295017508810395067511
:1001B00008150025650507190029658100C00000A4
:1001C0000000250028002B002E0031000404040448
:1001D00004030405020202020403020202020606EC
:1001E00006060606040402020204040408020110C2
:1001F0004080401020408040800802040180402060
:100200001002011080102040402000000002000970
:100210000F0000030401000C0000000000000000BB
:1002200000000000000000000000A80911241FBE0B
:10023000CFEFDAE0DEBFCDBF11E0A0E0B1E0EAED44
:10024000F7E102C005900D92A033B107D9F721E084
:10025000A0E3B1E001C01D92A73DB207E1F711E0B4
:10026000C6E1D1E004C02197FE010E94E00BC53138
:10027000D107C9F70E94D5090C94EB0B0C94000030
:10028000FC0180917601811103C08FEF9FEF0895EB
:100290009FB7F89482E08093E9002091F20030E06B
:1002A0001216130614F421E030E02115310559F03F
:1002B000289884E6809375018091F1008083809175
:1002C000F200882319F09FBFC90108958BE680933F
:1002D000E800F9CFCF92DF92EF92FF920F931F9336
:1002E000CF93DF936C017A018B01C0E0D0E0CE1593
:1002F000DF0589F0D8016D918D01D601ED91FC915A
:100300000190F081E02DC6010995892B11F47E0141
:1003100002C02196ECCFC701DF91CF911F910F91C1
:10032000FF90EF90DF90CF900895CF93DF931F92CF
:10033000CDB7DEB76983DC01ED91FC910280F381DA
:10034000E02D41E050E0BE016F5F7F4F09950F90B7
:10035000DF91CF91089583E08093E9008091F200CE
:10036000882319F08AE38093E8000895CF93DF9300
:100370001F92CDB7DEB7FC018485958597FD05C03A
:100380002FEF3FEF358724870BC0CE0101960E94E7
:100390004001019719F4898190E002C08FEF9FEF2F
:1003A0000F90DF91CF9108950F931F93CF93DF9319
:1003B0001F92CDB7DEB78C01FC018485958597FF30
:1003C0000EC0CE0101960E944001019719F42981C7
:1003D00030E002C02FEF3FEFF80135872487F801A6
:1003E000848595850F90DF91CF911F910F9108958E
:1003F000FC018485958597FD0BC09FB7F89482E03A
:100400008093E9008091F2009FBF90E001960895EB
:100410009FB7F89482E08093E9008091F2009FBF3B
:1004200090E00895409161015091620120915F0137
:100430003091600142175307B4F49091E800957031
:10044000E1F39091E80092FD19C08093F100809152
:1004500061019091620101968F739927892B19F49C
:100460008EEF8093E8008091610190916201019686
:10047000909362018093610181E0089580E0089586
:10048000CF92DF92EF92FF920F931F93CF93DF9360
:100490001F92CDB7DEB7182F062FE42E862F880FB8
:1004A0008E5F99830E94120283E00E941202F12E55
:1004B000C12E9981D92E8C2D8F19801798F4F601B1
:1004C000E7FE02C0849101C080810E941202182FB1
:1004D00080E00E9412028123FFEFCF1ADF0A811110
:1004E000EACF01C081E00F90DF91CF911F910F9172
:1004F000FF90EF90DF90CF900895DF92EF92FF9200
:100500000F931F93CF93DF93D82E8A017B01E40EC4
:10051000F51EEB01CE15DF0571F0D7FE03C0FE011D
:10052000849101C088810E94120221968111F2CF2C
:100530008FEF9FEF01C0C801DF91CF911F910F9105
:10054000FF90EF90DF900895615030F02091F1001E
:10055000FC0120830196F8CF289884E680937501EA
:1005600008958091560181110DC082E0809352015F
:1005700084E080935301109255011092540181E060
:100580008093560182E591E008950F931F93CF93D6
:10059000DF931F92CDB7DEB782E0898342E450E05B
:1005A00066EE70E080E80E947D020E94B102DC01EC
:1005B00012960D911C9113970115110569F0D80140
:1005C000ED91FC910280F381E02DBE016F5F7F4FC2
:1005D000C801099597FF07C089810F90DF91CF91DE
:1005E0001F910F910895F80100851185E5CF90E0E6
:1005F000FC013197EF30F105B0F5EA5AFF4F0C944A
:10060000E00B809180008F7703C0809180008F7D08
:1006100080938000089580918000877FF9CF84B512
:100620008F7702C084B58F7D84BD0895809190003E
:100630008F7707C0809190008F7D03C080919000DC
:10064000877F8093900008958091C0008F7703C0CA
:100650008091C0008F7D8093C00008958091C2007A
:10066000877F8093C2000895CF93DF93282F30E0D7
:10067000F901E65FFD4F8491F901E551FE4FD491F8
:10068000F901E453FE4FC491CC2399F081110E94EB
:10069000F702EC2FF0E0EE0FFF1FE254FE4FA591A2
:1006A000B4918FB7F8949C91ED2FE095E923EC93EA
:1006B0008FBFDF91CF910895CF93DF93282F30E044
:1006C000F901E65FFD4F8491F901E551FE4FD491A8
:1006D000F901E453FE4FC491CC2391F081110E94A3
:1006E000F702EC2FF0E0EE0FFF1FE852FF4FA5914D
:1006F000B491EC91ED2381E090E021F480E002C020
:1007000080E090E0DF91CF910895CF93DF9390E068
:10071000FC01E551FE4F2491FC01E453FE4F84910E
:10072000882361F190E0880F991FFC01E653FF4F89
:10073000C591D491FC01E254FE4FA591B491611191
:1007400009C09FB7F8948881209582238883EC9113
:100750002E230BC0623061F49FB7F8943881822F4A
:10076000809583238883EC912E2B2C939FBF06C00A
:100770008FB7F894E8812E2B28838FBFDF91CF911C
:1007800008953FB7F89480914E0190914F01A09148
:100790005001B091510126B5A89B05C02F3F19F01B
:1007A0000196A11DB11D3FBFBA2FA92F982F8827F1
:1007B000820F911DA11DB11DBC01CD0142E0660F4C
:1007C000771F881F991F4A95D1F708958F929F929E
:1007D000AF92BF92CF92DF92EF92FF926B017C01BA
:1007E0000E94C1034B015C01C114D104E104F10476
:1007F000F1F00E94C103DC01CB0188199909AA0913
:10080000BB09883E9340A105B10570F321E0C21AEF
:10081000D108E108F10888EE880E83E0981EA11C3B
:10082000B11CC114D104E104F10419F7DDCFFF902C
:10083000EF90DF90CF90BF90AF909F908F900895F2
:100840008F929F92AF92BF92CF92DF92EF92FF92E0
:100850000F931F93CF93DF9300D01F92CDB7DEB7D6
:10086000382F8B0180917601811103C08FEF9FEFAC
:100870007DC08091650180FF05C08091E0008260AD
:100880008093E0004A018AEFF82E832F8770E82ECC
:100890009FE3C92E832F8072B82E2AE3D22E832F96
:1008A0008074A82E8114910409F457C08FB7F8946E
:1008B000E092E9009091E80095FF05C09091F20068
:1008C0002C2D291B01C020E08FBF211110C0FA94EC
:1008D000FF2061F261E070E080E090E039834A83BC
:1008E0005B830E94E60339814A815B81DBCF822FE3
:1008F00090E0881699060CF4282D6FB7F894E092D2
:10090000E9008091E80085FF26C0822F90E0881AD8
:10091000990ABB2029F02150A8F01092F100FBCFDA
:10092000F80137FF07C0215058F074917093F1001F
:100930003196F9CF215020F071917093F100FACFE8
:10094000080F191F8091E80085FF0DC081149104E4
:1009500011F4A11008C06FBFA5CF5D9884E6809305
:100960006301CA0103C0D092E800F5CF0F900F9049
:100970000F90DF91CF911F910F91FF90EF90DF903B
:10098000CF90BF90AF909F908F900895CF93DF93BB
:10099000EC0180911201882331F083E00E94200451
:1009A0001816190634F081E090E09B838A8380E07A
:1009B00090E0DF91CF910895DC01FB0112968C91BC
:1009C000129790E02481358182179307D1F49181A9
:1009D0008081813A31F481E0913091F0933089F453
:1009E00011C0813271F49B3021F482811F968C9367
:1009F00005C09A3031F4828150968C9381E008953D
:100A0000089580E00895AF92BF92CF92DF92EF9267
:100A1000FF920F931F93CF93DF931F92CDB7DEB753
:100A20007C0169836A01590141E050E0BE016F5FBA
:100A30007F4FFC0183810E9420048C0197FD0BC035
:100A4000F7018381A501B60180640E94200497FD0F
:100A500002C0800F911F0F90DF91CF911F910F91D6
:100A6000FF90EF90DF90CF90BF90AF900895DC01A2
:100A7000FB0188E4808389E4818384E482831D967A
:100A80009C911D979F709F5B93831D968D919C9168
:100A90001E9724E0969587952A95E1F78F708F5BD6
:100AA000848385E00895EF92FF920F931F93CF9375
:100AB000DF93FB012081213851F52381223239F562
:100AC000DC0112962C9130E0448155814217530786
:100AD000F1F4EC010B851C85E12CF12C01151105BD
:100AE00091F0F801448155816281738180E80E9410
:100AF0007D028F3FFFEF9F0769F0E80EF91ED801D6
:100B00000D911C91EBCF81E08F87C70105C080E07C
:100B100090E002C08FEF9FEFDF91CF911F910F9177
:100B2000FF90EF900895CF93DF93CDB7DEB769972D
:100B30000FB6F894DEBF0FBECDBFFC01DB018C9178
:100B40008F5F8C93BE016F5F7F4F89E1DB011D9248
:100B50008A95E9F729E0298384E08A8391E09D83DF
:100B600083E08E832A8721E22B879C879D879F873E
:100B700022E2288B27E02B8B25E02C8B8E8B20E428
:100B800030E0388F2F8B998F82818B839585868576
:100B9000998B8A8B838180688D8B49E150E080E05E
:100BA0000E947D0269960FB6F894DEBF0FBECDBFDE
:100BB000DF91CF910895CF93DF938091410181110F
:100BC0006BC081E080933401809335012AE331E0EA
:100BD0003093370120933601109239011092380179
:100BE00027E131E0309331012093300110923C0134
:100BF00010923B0110923E0110923D0180933F0103
:100C00008093400181EC80933A010E94B102FC0183
:100C100021818091340190E0820F911D089724F08A
:100C200081E08093410138C0A281B381109729F4FB
:100C300080E391E0938382830EC018968D919C91FE
:100C40001997009711F0DC01F8CF80E391E0199635
:100C50009C938E9318978081809332018181809339
:100C60003301908180913501890F808380E09091DC
:100C700034018917A8F69181A92FB0E0A050BF4F89
:100C8000C0913601D0913701C80FD11D28812C9316
:100C90009F5F91838F5FEBCF80E391E0DF91CF91F6
:100CA0000895CF93DF9300D0CDB7DEB789831A8242
:100CB0000E94DB0522E030E0AE014F5F5F4F64E051
:100CC0000E94030519821A820E94DB0522E030E0AF
:100CD000AE014F5F5F4F64E00E9403050F900F90DD
:100CE000DF91CF910895CF93DF93CDB7DEB72897EB
:100CF0000FB6F894DEBF0FBECDBF85E089831A82A0
:100D00008FE08B831C821D821E821F8218860E94A8
:100D1000DB0528E030E0AE014F5F5F4F62E00E94EC
:100D2000030519821B820E94DB0528E030E0AE013A
:100D30004F5F5F4F62E00E94030528960FB6F8945C
:100D4000DEBF0FBECDBFDF91CF910895FC01828140
:100D50008F5BFB01808381E008950E94E60B1F9268
:100D60000F920FB60F9211248F939F938091E10001
:100D70009091E100937F9093E10083FF0FC0109268
:100D8000E90091E09093EB001092EC0092E39093D5
:100D9000ED001092760198E09093F00082FF20C061
:100DA00093E09093E9009091F200992319F09AE36F
:100DB0009093E80090916301992339F09091630139
:100DC000915090936301992389F190917501992332
:100DD00039F090917501915090937501992341F1EB
:100DE00084FF10C08091E2008E7E81608093E200DB
:100DF0008091E1008F7E8093E100809165018E7E7D
:100E0000806111C080FF16C08091E2008E7E8061FB
:100E10008093E2008091E1008E7E8093E1008091DA
:100E200065018E7E81608093650104C05D9ACDCF9F
:100E3000289AD6CF9F918F910F900FBE0F901F9041
:100E400018951F920F920FB60F921124CF92DF9236
:100E5000EF92FF920F931F932F933F934F935F93C4
:100E60006F937F938F939F93AF93BF93EF93FF9372
:100E7000CF93DF93CDB7DEB76C97DEBFCDBF1092B7
:100E8000E9008091E80083FFFAC168E0CE01459651
:100E90000E94A40282EF8093E8008D8987FF05C03D
:100EA0009091E80090FFFCCF03C09EEF9093E80084
:100EB000982F907609F0C6C09E892F89188D9111C0
:100EC0000CC0803829F4809166018093F10002C043
:100ED0001092F1001092F10047C1422F50E0512BC7
:100EE000913051F4811140C14130510509F03CC1AC
:100EF000809166018D7F0BC0933061F4811134C104
:100F00004130510509F030C18091660182608093C3
:100F100066012AC1953041F48091E80080FFFCCF42
:100F200020682093E30020C1963009F05FC0EB8C6D
:100F3000FC8C1092E9001092620110926101123053
:100F400091F51092600110925F010E94C50299E034
:100F5000BE016F5F7F4FDB01E92F1D92EA95E9F734
:100F600099831A8391E09E8390EA98879AEF9987F4
:100F70002091610130916201275F3F4F3C832B83B9
:100F80008D831092E9001092620110926101F0923B
:100F90006001E0925F0149E050E080E00E947D0244
:100FA0000E94C502E1C0F0926001E0925F010E94E0
:100FB000B102DC011296ED90FC901397E114F1045C
:100FC00009F4C0C0D701ED91FC910480F581E02DBA
:100FD000BE016B5E7F4FC7010995009719F00CF0B9
:100FE000C3C0C6C0F701E084F184E8CF973009F4AC
:100FF000BFC0983021F481E08093F100B5C09930F2
:1010000009F0B2C0837009F0B3C0E1E0F1E081E023
:1010100021E036E39081992361F08093E9002093E9
:10102000EB0091919093EC003093ED008F5F87304F
:1010300089F78EE78093EA001092EA008F89809307
:10104000760192C08B8D9C8D1092E9001092620106
:10105000109261019093600180935F01898D8111ED
:1010600056C08E899D89913A59F4813209F080C029
:1010700047E050E06BE071E080E00E947D0274C0C8
:10108000913209F075C0833289F4888D90E0982FF1
:1010900088272F89822BA0E0B0E0809307019093EE
:1010A0000801A0930901B0930A015EC0803269F47F
:1010B0008091E80082FFFCCF67E08BE091E00E9426
:1010C000A4028BEF8093E80006C0823209F04CC086
:1010D0008F898093120180916401882319F0EEEFCB
:1010E000FAE002C0E0E0F8E080910B0190910C0181
:1010F000A0910D01B0910E01803B9440A105B10576
:1011000009F088C08091120180FFA0C083C00E94B6
:10111000B102DC0112960D911C9113970115110576
:1011200039F1D801ED91FC910190F081E02DBE01E3
:101130006B5E7F4FC8010995811116C0F8010085CB
:101140001185ECCF1130C1F0133091F48F898823D1
:1011500009F455C08230E9F440E867E184E391E0A6
:101160000E944002882321F08EEF8093E80087C020
:1011700081E28093EB0083C08B8D9C8D089711F4E6
:1011800010935E0180915E01811136C06CE471E0C4
:1011900038C0813029F440E867E08CE291E0E0CF8C
:1011A000833031F70E94B102DC011296ED90FC9081
:1011B00013978E010F5F1F4F6801E114F10479F05E
:1011C000D701ED91FC910680F781E02DB801C701B0
:1011D0000995080F111DF701E084F184EECFD801C5
:1011E0001C92F60101900020E9F73197BF016C19BC
:1011F0007D0940E0C601B4CF6EE571E002C068E24F
:1012000071E06115710509F4B3CFFB01449150E021
:1012100080E833CF0FB6F894A8958091600088617C
:1012200080936000109260000FBEA895EE3F2AE008
:10123000F20739F08091FE0A9091FF0A9183808332
:1012400093CF1092FF0A1092FE0A8ECFEE3F8AE0F3
:10125000F80731F0808191819093FF0A8093FE0A14
:1012600087E797E7918380839BE088E10FB6F89446
:10127000A895809360000FBE9093600075CF6C9628
:101280000FB6F894DEBF0FBECDBFDF91CF91FF91B7
:10129000EF91BF91AF919F918F917F916F915F91EE
:1012A0004F913F912F911F910F91FF90EF90DF9001
:1012B000CF900F900FBE0F901F9018951F920F9216
:1012C0000FB60F9211242F933F938F939F93AF9359
:1012D000BF9380914A0190914B01A0914C01B09134
:1012E0004D013091490123E0230F2D3720F4019661
:1012F000A11DB11D05C026E8230F0296A11DB11D39
:101300002093490180934A0190934B01A0934C0193
:10131000B0934D0180914E0190914F01A0915001E9
:10132000B09151010196A11DB11D80934E01909382
:101330004F01A0935001B0935101BF91AF919F9184
:101340008F913F912F910F900FBE0F901F90189586
:10135000E7E7F1E01382128288EE93E0A0E0B0E0CC
:1013600084839583A683B78383E291E0918380830E
:101370008FEF9FEF95878487EBECF1E088E090E0BA
:101380009783868386E090E09187808787E090E06E
:1013900093878287E7ECF1E080E190E0918380839E
:1013A0008FE090E0938382830895789484B582607F
:1013B00084BD84B5816084BD85B5826085BD85B5F9
:1013C000816085BD80916E00816080936E00109277
:1013D00081008091810082608093810080918100F2
:1013E0008160809381008091800081608093800083
:1013F0008091910082608093910080919100816042
:101400008093910080919000816080939000809102
:10141000C10084608093C1008091C100826080938C
:10142000C1008091C10081608093C1008091C300A0
:1014300081608093C3008091C00082608093C0006F
:101440008091C20081608093C20080917A008460A4
:1014500080937A0080917A00826080937A008091F4
:101460007A00816080937A0080917A00806880930E
:101470007A001092760110926601109265018091B7
:10148000D70081608093D70080EA8093D80089B527
:10149000806189BD89B5826089BD09B400FEFDCF38
:1014A00061E070E080E090E00E94E6038091D80067
:1014B0008F7C80618093D8008091E000807F809352
:1014C000E0008091E1008E7E8093E1008DE08093CA
:1014D000E200559A209AEEEFFFE7859194918B3FB9
:1014E0009C4D19F481E08093640161E08091D50105
:1014F0000E9485038091D5010E94340362E08091AF
:10150000D1010E94850362E08091D3010E9485038E
:101510008091D1010E945C039093CC018093CB0118
:101520008091D3010E945C039093CE018093CD0102
:1015300061E08091C7010E9485038091C7010E94EC
:10154000340362E08091C9010E94850380916D019E
:10155000811113C0109268011092670180E791E039
:1015600090936A01809369018EE490E090936C01FE
:1015700080936B0181E080936D010E94DB05FC018B
:10158000A385B485109729F487E691E09487838733
:101590000BC08D919C911197009711F0DC01F9CF50
:1015A00087E691E08D939C932585368580916B012C
:1015B00090916C01820F931F9687858700E010E061
:1015C0008091D1010E945C03EC018091D3010E94C3
:1015D0005C032091CB013091CC012C173D0724F402
:1015E00081309105C9F41EC0C217D30724F481309D
:1015F000910591F017C02091CD013091CE012817AF
:10160000390724F4C130D10539F00CC08217930793
:1016100034F4C130D10531F021E030E005C020E0E4
:1016200030E002C02FEF3FEFD093CC01C093CB014D
:101630009093CE018093CD012130310539F4809112
:10164000CF019091D001019761F4B4C02F3F4FEFCB
:10165000340759F48091CF019091D001019609F49B
:10166000ABC03093D0012093CF018091C9010E947B
:101670005C03892B09F097C0C3E3D0E08091C901D6
:101680000E945C03892B11F56AE070E080E090E035
:101690000E94E603219791F780E20E945106C0E084
:1016A000D0E08091C9010E945C03892B09F07BC0C6
:1016B000C230D1051CF080E20E94510664EF71E057
:1016C00080E090E00E94E6032196EBCFC3E3D0E0F8
:1016D0008091C9010E945C03892B51F06AE070E09F
:1016E00080E090E00E94E603219791F788E03DC0FA
:1016F000C3E3D0E08091C9010E945C03892B11F5FE
:101700006AE070E080E090E00E94E603219791F7A4
:1017100080E10E945106C0E0D0E08091C9010E94A2
:101720005C03892B09F03FC0C230D1051CF080E179
:101730000E94510664EF71E080E090E00E94E603B1
:101740002196EBCFC0E0D0E08091C9010E945C03FC
:10175000892B71F06AE070E080E090E00E94E6037F
:101760002196C333D10581F780E10E9451061BC049
:101770008091C9010E945C03892B99F46AE070E0B2
:1017800080E090E00E94E6032196C333D10581F703
:101790000E9473068091C9010E945C03892BD1F3DA
:1017A00002C00E9473060115110509F409CF0E94B9
:1017B000000006CF81E001C082E00E94510655CFB3
:1017C000EE0FFF1F0590F491E02D099481E090E069
:0A17D000F8940C94EB0BF894FFCF93
:1017DA0000C18081000000FFFFFFFF00E100000060
:1017EA0000000000000000DC0493055305370500E3
:1017FA000000009501C604F801B601D401AB01004E
:00000001FF
